{
  "contractName": "Companies",
  "abi": [
    {
      "inputs": [],
      "payable": false,
      "stateMutability": "nonpayable",
      "type": "constructor"
    },
    {
      "anonymous": false,
      "inputs": [
        {
          "indexed": false,
          "internalType": "uint256",
          "name": "id",
          "type": "uint256"
        },
        {
          "indexed": false,
          "internalType": "string",
          "name": "name",
          "type": "string"
        },
        {
          "indexed": false,
          "internalType": "uint256",
          "name": "funds",
          "type": "uint256"
        }
      ],
      "name": "CompanyCreated",
      "type": "event"
    },
    {
      "constant": true,
      "inputs": [
        {
          "internalType": "uint256",
          "name": "",
          "type": "uint256"
        }
      ],
      "name": "companies",
      "outputs": [
        {
          "internalType": "uint256",
          "name": "id",
          "type": "uint256"
        },
        {
          "internalType": "string",
          "name": "name",
          "type": "string"
        },
        {
          "internalType": "uint256",
          "name": "funds",
          "type": "uint256"
        }
      ],
      "payable": false,
      "stateMutability": "view",
      "type": "function"
    },
    {
      "constant": true,
      "inputs": [],
      "name": "company_count",
      "outputs": [
        {
          "internalType": "uint256",
          "name": "",
          "type": "uint256"
        }
      ],
      "payable": false,
      "stateMutability": "view",
      "type": "function"
    },
    {
      "constant": false,
      "inputs": [
        {
          "internalType": "string",
          "name": "name",
          "type": "string"
        }
      ],
      "name": "createCompany",
      "outputs": [],
      "payable": false,
      "stateMutability": "nonpayable",
      "type": "function"
    }
  ],
  "bytecode": "0x60806040526000805534801561001457600080fd5b5060408051808201909152600d81526c527569277320636f6d70616e7960981b602082015261004b906001600160e01b0361005016565b6101f7565b6000805460019081018083556040805160608101825282815260208082018781526103e883850152938652848152919094208451815591518051929361009e9390850192919091019061015c565b50604082015181600201559050507fd1626da1bd8e455cc3bfd164e6602b3ac7b6a25e98dad1ef603b0914c739546b600054826103e86040518084815260200180602001838152602001828103825284818151815260200191508051906020019080838360005b8381101561011d578181015183820152602001610105565b50505050905090810190601f16801561014a5780820380516001836020036101000a031916815260200191505b5094505050505060405180910390a150565b828054600181600116156101000203166002900490600052602060002090601f016020900481019282601f1061019d57805160ff19168380011785556101ca565b828001600101855582156101ca579182015b828111156101ca5782518255916020019190600101906101af565b506101d69291506101da565b5090565b6101f491905b808211156101d657600081556001016101e0565b90565b610439806102066000396000f3fe608060405234801561001057600080fd5b50600436106100415760003560e01c80632813d19d146100465780634408f4b5146100e9578063fd7f611e14610103575b600080fd5b6100636004803603602081101561005c57600080fd5b50356101ab565b6040518084815260200180602001838152602001828103825284818151815260200191508051906020019080838360005b838110156100ac578181015183820152602001610094565b50505050905090810190601f1680156100d95780820380516001836020036101000a031916815260200191505b5094505050505060405180910390f35b6100f1610257565b60408051918252519081900360200190f35b6101a96004803603602081101561011957600080fd5b81019060208101813564010000000081111561013457600080fd5b82018360208201111561014657600080fd5b8035906020019184600183028401116401000000008311171561016857600080fd5b91908080601f01602080910402602001604051908101604052809392919081815260200183838082843760009201919091525092955061025d945050505050565b005b600160208181526000928352604092839020805481840180548651600296821615610100026000190190911695909504601f810185900485028601850190965285855290949193929091908301828280156102475780601f1061021c57610100808354040283529160200191610247565b820191906000526020600020905b81548152906001019060200180831161022a57829003601f168201915b5050505050908060020154905083565b60005481565b6000805460019081018083556040805160608101825282815260208082018781526103e88385015293865284815291909420845181559151805192936102ab93908501929190910190610369565b50604082015181600201559050507fd1626da1bd8e455cc3bfd164e6602b3ac7b6a25e98dad1ef603b0914c739546b600054826103e86040518084815260200180602001838152602001828103825284818151815260200191508051906020019080838360005b8381101561032a578181015183820152602001610312565b50505050905090810190601f1680156103575780820380516001836020036101000a031916815260200191505b5094505050505060405180910390a150565b828054600181600116156101000203166002900490600052602060002090601f016020900481019282601f106103aa57805160ff19168380011785556103d7565b828001600101855582156103d7579182015b828111156103d75782518255916020019190600101906103bc565b506103e39291506103e7565b5090565b61040191905b808211156103e357600081556001016103ed565b9056fea265627a7a723158201d48732bf5c790ea5b966b52bbe6f6bc30f1204560932c87dfcc882d1433b83b64736f6c63430005100032",
  "source": "// SPDX-License-Identifier: MIT\npragma solidity >=0.4.22 <0.9.0;\n\ncontract Companies {\n  uint256 public company_count = 0;\n\n    struct Company {\n        uint256 id;\n        string name;\n        uint funds;\n    }\n\n    mapping(uint256 => Company) public companies;\n\n    event CompanyCreated(uint id, string name, uint funds);\n\n    constructor() public {\n        createCompany(\"Rui's company\");\n    }\n\n    function createCompany(string memory name) public {\n        company_count++;\n        companies[company_count] = Company(company_count, name, 1000);\n        emit CompanyCreated(company_count, name, 1000);\n    }\n}\n",
  "sourcePath": "/Users/ruifernandes/Documents/Github/crypto_devs/contracts/Companies.sol",
  "compiler": {
    "name": "solc",
    "version": "0.5.16+commit.9c3226ce.Emscripten.clang"
  },
  "schemaVersion": "3.4.3",
  "updatedAt": "2021-11-15T18:24:05.893Z",
  "networkType": "ethereum",
  "devdoc": {
    "methods": {}
  },
  "userdoc": {
    "methods": {}
  }
}